:100000000C9462000C948A000C948A000C948A0070
:100010000C948A000C948A000C948A000C948A0038
:100020000C948A000C948A000C948A000C948A0028
:100030000C948A000C948A000C948A000C948A0018
:100040000C94D0020C948A000C9440030C941A0374
:100050000C948A000C948A000C948A000C948A00F8
:100060000C948A000C948A000000000023002600F3
:10007000290000000000240027002A0000000000E2
:10008000250028002B0004040404040404040202D4
:100090000202020203030303030301020408102007
:1000A0004080010204081020010204081020000012
:1000B0000008000201000003040700000000000027
:1000C0000000150511241FBECFEFD8E0DEBFCDBF65
:1000D00011E0A0E0B1E0EEE9FAE002C005900D9277
:1000E000A037B107D9F722E0A0E7B1E001C01D9227
:1000F000AC31B207E1F710E0C2E6D0E004C02197CE
:10010000FE010E944205C136D107C9F70E94720361
:100110000C944D050C940000833081F028F481305C
:1001200099F08230A1F008958730A9F08830B9F0B5
:100130008430D1F4809180008F7D03C08091800055
:100140008F7780938000089584B58F7702C084B53F
:100150008F7D84BD08958091B0008F7703C080911A
:10016000B0008F7D8093B00008951F93CF93DF93ED
:10017000282F30E0F901E255FF4F8491F901E6564E
:10018000FF4FD491F901EA57FF4FC491CC23C1F03E
:10019000162F81110E948C00EC2FF0E0EE0FFF1F54
:1001A000E458FF4FA591B4919FB7F894111104C082
:1001B0008C91D095D82302C0EC91DE2BDC939FBFAD
:1001C000DF91CF911F910895CF93DF9390E0FC01D1
:1001D000E656FF4F2491FC01EA57FF4F8491882394
:1001E00061F190E0880F991FFC01EE58FF4FC59117
:1001F000D491FC01E458FF4FA591B491611109C05D
:100200009FB7F8948881209582238883EC912E23D0
:100210000BC0623061F49FB7F8948881322F30951B
:1002200083238883EC912E2B2C939FBF06C08FB71E
:10023000F894E8812E2B28838FBFDF91CF9108950A
:100240008E3008F08E508770806480937C0080919F
:100250007A00806480937A0080917A0086FDFCCFDA
:10026000809178002091790090E0922B08953FB71B
:10027000F89480917B0190917C01A0917D01B091D7
:100280007E0126B5A89B05C02F3F19F00196A11D40
:10029000B11D3FBFBA2FA92F982F8827820F911D1C
:1002A000A11DB11DBC01CD0142E0660F771F881F63
:1002B000991F4A95D1F708958F929F92AF92BF925E
:1002C000CF92DF92EF92FF926B017C010E94370187
:1002D0004B015C01C114D104E104F104F1F00E946E
:1002E0003701DC01CB0188199909AA09BB09883EAD
:1002F0009340A105B10570F321E0C21AD108E108CD
:10030000F10888EE880E83E0981EA11CB11CC11470
:10031000D104E104F10419F7DDCFFF90EF90DF90F5
:10032000CF90BF90AF909F908F900895CF92DF9223
:10033000EF92FF920F931F93CF93DF936C017A019B
:100340008B01C0E0D0E0CE15DF0581F0D8016D91C2
:100350008D01D601ED91FC910190F081E02DC60157
:100360000995892B11F02196EECF7E01C701DF910F
:10037000CF911F910F91FF90EF90DF90CF90089554
:10038000089580E090E00895FC01538D448D252F61
:1003900030E0842F90E0821B930B541710F0CF961F
:1003A000089501970895FC01918D828D981761F051
:1003B000828DDF01A80FB11D5D968C91928D9F5F9C
:1003C0009F73928F90E008958FEF9FEF0895FC0147
:1003D000918D828D981731F0828DE80FF11D858DFA
:1003E00090E008958FEF9FEF0895FC01918D228D8D
:1003F000892F90E0805C9F4F821B91098F73992712
:1004000008958FE791E00E94F50121E0892B09F41E
:1004100020E0822F0895FC01848DDF01A80FB11D1B
:10042000A35ABF4F2C91848D90E001968F7399272A
:10043000848FA689B7892C93A089B1898C91837008
:1004400080648C93938D848D981306C00288F38901
:10045000E02D80818F7D80830895EF92FF920F932E
:100460001F93CF93DF93EC0181E0888F9B8D8C8D60
:10047000981305C0E889F989808185FD26C0F62E8C
:100480000B8D10E00F5F1F4F0F731127E02E8C8D27
:10049000E8120CC00FB607FCFACFE889F989808111
:1004A00085FFF5CFCE010E940B02F1CF8B8DFE01AF
:1004B000E80FF11DE35AFF4FF0829FB7F8940B8FBE
:1004C000EA89FB89808180620AC09FB7F894EE892F
:1004D000FF896083E889F9898081837080648083E3
:1004E0009FBF81E090E0DF91CF911F910F91FF902E
:1004F000EF900895CF93DF93EC01888D8823C9F0A6
:10050000EA89FB89808185FD05C0A889B9898C911C
:1005100086FD0FC00FB607FCF5CF808185FFF2CFB7
:10052000A889B9898C9185FFEDCFCE010E940B027D
:10053000E7CFDF91CF91089580E090E0892B29F0FB
:100540000E94010281110C940000089560E085E092
:100550000E94B50061E086E00C94B500009769F058
:10056000FC0101900020E9F73197AF01481B590BBE
:10057000BC018FE791E00C94960180E090E0089533
:10058000CF93DF930E94AE02EC0182E191E00E94E2
:10059000AE028C0F9D1FDF91CF9108950E944805F8
:1005A0001F920F920FB60F9211242F933F938F93A8
:1005B0009F93AF93BF938091770190917801A09121
:1005C0007901B0917A013091760123E0230F2D3724
:1005D00020F40196A11DB11D05C026E8230F029647
:1005E000A11DB11D2093760180937701909378012E
:1005F000A0937901B0937A0180917B0190917C0165
:10060000A0917D01B0917E010196A11DB11D809345
:100610007B0190937C01A0937D01B0937E01BF91FB
:10062000AF919F918F913F912F910F900FBE0F909F
:100630001F9018951F920F920FB60F9211242F93AF
:100640003F934F935F936F937F938F939F93AF935A
:10065000BF93EF93FF938FE791E00E940B02FF910E
:10066000EF91BF91AF919F918F917F916F915F912A
:100670004F913F912F910F900FBE0F901F901895A3
:100680001F920F920FB60F9211242F938F939F9367
:10069000EF93FF93E0918F01F09190018081E091C1
:1006A0009501F091960182FD12C090818091980190
:1006B0008F5F8F7320919901821751F0E09198011B
:1006C000F0E0E158FE4F958F8093980101C0808142
:1006D000FF91EF919F918F912F910F900FBE0F90EF
:1006E0001F901895789484B5826084BD84B581602C
:1006F00084BD85B5826085BD85B5816085BD8091ED
:100700006E00816080936E00109281008091810064
:10071000826080938100809181008160809381005C
:10072000809180008160809380008091B10084601E
:100730008093B1008091B00081608093B00080917F
:100740007A00846080937A0080917A00826080933E
:100750007A0080917A00816080937A0080917A009B
:10076000806880937A001092C100E0918F01F0912F
:10077000900182E08083E0918B01F0918C011082E6
:10078000E0918D01F0918E018FEC808310929701A2
:10079000E0919301F091940186E08083E0919101D2
:1007A000F0919201808180618083E0919101F091CC
:1007B0009201808188608083E0919101F0919201A3
:1007C000808180688083E0919101F0919201808125
:1007D0008F7D808361E084E00E94E40061E083E03B
:1007E0000E94E40061E082E00E94E40061E085E0B4
:1007F0000E94E40061E086E00E94E40060E08CE09A
:100800000E94E40061E08CE00E94B50060E083E0BB
:100810000E94B50060E082E00E94B50060E084E0E4
:100820000E94B50060E085E00E94B50060E086E0CF
:100830000E94B5002AEBC22E20E0D22E36EAA32E6B
:1008400030E0B32E42E9842E40E0942E8EE00E94E8
:1008500020017C0190937501809374018FE00E94C8
:1008600020018C01909373018093720180E10E94BA
:10087000200197FD0196EC01D595C795D0937101A4
:10088000C0937001F6018491F5019491F401749084
:10089000772061F081110E948C00E72DF0E0EE0FCF
:1008A000FF1FE859FF4FA591B4918C91F0E9EF1625
:1008B000F1E0FF060CF046C00B3F11050CF442C0FE
:1008C000E2970CF03FC082E491E00E94C00261E038
:1008D00084E00E94B50061E083E00E94B50085E1FC
:1008E00091E00E94C00260ED77E080E090E00E941D
:1008F0005C0188E191E00E94C00260ED77E080E059
:1009000090E00E945C0182E291E00E94C00260EDF2
:1009100077E080E090E00E945C0187E391E00E9434
:10092000AE026AE18FE791E00E942D0260ED77E070
:1009300080E090E00E945C010E94A60260E082E0FC
:100940000E94B50080917201909173018A3F9105D8
:10095000ECF5809174019091750180399140B4F566
:100960008091700190917101C39784F181E491E0CD
:100970000E94C00261E084E00E94B50061E083E073
:100980000E94B5000E94A60260E082E00E94B500CD
:1009900085E191E00E94C00260ED77E080E090E0A8
:1009A0000E945C018EE491E00E94C00260E375E762
:1009B00080E090E00E945C018EE591E00E94C00220
:1009C00060EA7FE080E090E00E945C01809172012B
:1009D000909173018B3F91052CF18091740190915E
:1009E0007501853F9140F4F0809170019091710103
:1009F0008997C4F082E691E00E94C00260E084E042
:100A00000E94B50060E083E00E94B50061E085E0EF
:100A10000E94B50060E086E00E94B50061E082E0DF
:100A20000E94B5000E949C0211CFEFE7F1E0138213
:100A3000128288EE93E0A0E0B0E084839583A683E1
:100A4000B78384E091E09183808385EC90E0958783
:100A5000848784EC90E09787868780EC90E0918B88
:100A6000808B81EC90E0938B828B82EC90E0958B75
:100A7000848B86EC90E0978B868B118E128E138E72
:100A8000148E0895EE0FFF1F0590F491E02D099448
:0E0A900081E090E0F8940C944D05F894FFCFAF
:100A9E00000000002D029601C4017A02F501D30177
:100AAE00E7010D0A0041540041542B434D47463D8A
:100ABE00310041542B434D47533D223739373630A1
:100ACE0038313833302200417474656E74696F6E3C
:100ADE0000696920636F6E646974696F6E004154BA
:100AEE004420373937363038313833303B004154B3
:100AFE00480069694920636F6E646974696F6E009E
:00000001FF
